:0300000002017D7D
:0C017D00787FE4F6D8FD75813B0201C4D8
:10037100000000000000000000000000000000007C
:040381000000000078
:1000030014080000000000000000000000000000D1
:0B001300000000000000011C00C10004
:0300230002027660
:10027600C0E0C0F0C083C082C0D075D000C000C04E
:1002860001C002C003C004C005C006C007309815EF
:10029600C29812002612038DAF1C051C74082FF895
:1002A600A69912001FD007D006D005D004D003D0DF
:1002B60002D001D000D0D0D082D083D0F0D0E032AE
:03002B000202C608
:1002C600C0E0C0F0C083C082C0D075D000C000C0FE
:1002D60001C002C003C004C005C006C007C2CF12D9
:1002E6000026D200D007D006D005D004D003D00215
:0F02F600D001D000D0D0D082D083D0F0D0E03271
:10020900E4F52178227C00FD7BFF7A037971FE7F7A
:10021900141200FEE4F5367F011203313000FDE4CB
:10022900F536E536C3951C501274082536F8E6FFF5
:1002390074222536F8A607053680E7851C217E003D
:100249007F147D007B007A007908120151E4F51CC6
:10025900FB7A007922AD21120305AF217E007D00D2
:0D0269007B007A007922120151C20080AFA3
:080305008B378A3889398D3AE3
:10030D00E4F53BF53BE53BC3953A5017AB37AA38BF
:10031D00A939853B82758300120124FF12038505DF
:03032D003B80E230
:0103300022AA
:10035B00E4F5C9F5C875CC3375CDF575CA3375CBD6
:06036B00F5C2CAD2AD226A
:07038D0075CC3375CDF5229C
:03001F00D2CA2220
:03002600C2CA2229
:1003310075985053890F438920EF14600804700E9B
:1003410053877F8003438780758BFD758DFDC2AB1D
:0A035100D28E12035BD2AFD2AC22B1
:080385008F993099FDC2992205
:10018900020209E493A3F8E493A34003F68001F281
:1001990008DFF48029E493A3F85407240CC8C33377
:1001A900C4540F4420C8834004F456800146F6DF46
:1001B900E4800B0102040810204080900003E47ED3
:1001C900019360BCA3FF543F30E509541FFEE4933B
:1001D900A360010ECF54C025E060A840B8E493A302
:1001E900FAE493A3F8E493A3C8C582C8CAC583CA2D
:1001F900F0A3C8C582C8CAC583CADFE9DEE780BEE5
:01001E0000E1
:10002E00E709F608DFFA8046E709F208DFFA803EB4
:10003E0088828C83E709F0A3DFFA8032E309F608A1
:10004E00DFFA8078E309F208DFFA807088828C8309
:10005E00E309F0A3DFFA806489828A83E0A3F608BD
:10006E00DFFA805889828A83E0A3F208DFFA804C97
:10007E0080D280FA80C680D4806980F2803380106E
:10008E0080A680EA809A80A880DA80E280CA8033D7
:10009E0089828A83ECFAE493A3C8C582C8CCC5834F
:1000AE00CCF0A3C8C582C8CCC583CCDFE9DEE7801F
:1000BE000D89828A83E493A3F608DFF9ECFAA9F09E
:1000CE00EDFB2289828A83ECFAE0A3C8C582C8CCF4
:1000DE00C583CCF0A3C8C582C8CCC583CCDFEADE0D
:1000EE00E880DB89828A83E493A3F208DFF980CC6F
:1000FE0088F0EF60010E4E60C388F0ED2402B40468
:10010E000050B9F582EB2402B4040050AF2323450E
:06011E00822390007E73B5
:10012400BB010CE58229F582E5833AF583E0225090
:1001340006E92582F8E622BBFE06E92582F8E222DA
:0D014400E58229F582E5833AF583E49322F4
:10015100EF4E6012EF60010EEDBB010B89828A83C5
:10016100F0A3DFFCDEFA2289F05007F709DFFCA9D2
:0C017100F022BBFEFCF309DFFCA9F02229
:00000001FF
